:020000040800F2
:1000000000180020A93F00080108000805080008A2
:1000100000000000000000000000000000000000E0
:1000200000000000000000000000000009080008B7
:1000300000000000000000000D0800081108000882
:10004000194000081940000819400008194000082C
:10005000194000081940000819400008194000081C
:10006000194000081940000819400008194000080C
:1000700019400008194000081940000819400008FC
:1000800019400008000000000000000019400008AE
:10009000000000001940000819400008194000083D
:1000A000000000001940000819400008194000082D
:1000B000194000080000000019080008290800087D
:1000C00010B5064C2378002B07D1054B002B02D02E
:1000D000044800E000BF0123237010BD7C01002014
:1000E000000000008C400008084B10B5002B03D026
:1000F0000749084800E000BF07480368002B00D10B
:1001000010BD064B002BFBD09847F9E7000000001C
:10011000800100208C4000087C01002000000000CD
:10012000002243088B4274D303098B425FD3030A36
:100130008B4244D3030B8B4228D3030C8B420DD349
:10014000FF22090212BA030C8B4202D312120902D7
:1001500065D0030B8B4219D300E0090AC30B8B4215
:1001600001D3CB03C01A5241830B8B4201D38B03C3
:10017000C01A5241430B8B4201D34B03C01A524168
:10018000030B8B4201D30B03C01A5241C30A8B42AB
:1001900001D3CB02C01A5241830A8B4201D38B0296
:1001A000C01A5241430A8B4201D34B02C01A52413A
:1001B000030A8B4201D30B02C01A5241CDD2C309AC
:1001C0008B4201D3CB01C01A524183098B4201D328
:1001D0008B01C01A524143098B4201D34B01C01A13
:1001E000524103098B4201D30B01C01A5241C3088B
:1001F0008B4201D3CB00C01A524183088B4201D3FA
:100200008B00C01A524143088B4201D34B00C01AE5
:100210005241411A00D20146524110467047FFE751
:1002200001B5002000F006F802BDC0460029F7D055
:1002300076E770477047C04610B598B03422002169
:100240000BA803F01AFF1022002101A803F015FFEC
:100250001822002105A803F010FF01230B930C9333
:1002600080235B021593802302245B030BA8169363
:10027000149401F0E3FB072301930023012101A85B
:1002800003930493029401F0CFFE80239B02059315
:10029000802305A80A9301F05BFF18B010BDC0468B
:1002A00070B58EB002F01EF8FFF7C6FF80228026E0
:1002B000214BD2035969B60211435961596900258E
:1002C0000A400192019A5A6932435A615A6932408E
:1002D0000292029A80225969D202114359615B69E4
:1002E0001A400392039B00F02FF8144C144B20008B
:1002F00023600823636080235B036361A560E5607E
:10030000266125766576A576E5762577657703F00F
:1003100075FA012304A92000099508950A950B9305
:1003200005950495079506950C9303F0FDFA0221B7
:10033000200003F0F7FCFEE700100240F403002069
:10034000006400407047C04610B5124C00221249AC
:10035000200002F021F9002819D11049200002F0F4
:1003600035F9002810D10E49200002F0D3FE0028F4
:1003700007D1200002F034F9002801D0FFF7E2FF96
:1003800010BDFFF7DFFFF4E7FFF7DCFFEBE7FFF758
:10039000D9FFE2E71C04002000000020B00000208C
:1003A0005000002000B50D4B026883B09A4201D086
:1003B00003B000BD80230A4A1B04D1691F201943E2
:1003C000D161D2690021134001930022019B02F008
:1003D00085F81F2002F0B6F8EAE7C046005C00404E
:1003E000001002408C2310B59B00C1184033C05848
:1003F00002F010F910BDC0464B01C3183D33FF3366
:100400001A689C2310B59B00C05802F035F910BD46
:100410004B01C318DA6B9C2310B59B00C05802F047
:1004200079F910BD9C2310B59B00C05802F028FA42
:1004300010BDC046836870B50400022B01D0FFF7E1
:1004400081FF9C25AD000121605902F0FDF9605942
:1004500002F0CAF970BDC0469C2310B504009B0091
:10046000C05802F0F5F9A369002B04D00623024A14
:1004700011690B43136110BD00ED00E0836910B5F5
:100480000400002B06D00621054A13698B43136133
:10049000FFF7D2FE9C239B00E05802F0E5F910BD67
:1004A00000ED00E09C2370B504001D489B00C45083
:1004B0005033E0501B4B036008234360063B8360CE
:1004C000036100238361C361036200F041FE0028E1
:1004D00001D0FFF737FFB025AD0060591823002287
:1004E000002101F07BFA605958230022802101F09D
:1004F00075FA6059C0230022812101F06FFA882328
:1005000060595B000022012101F068FA80236059E4
:100510005B000022822101F061FA002070BDC0461C
:10052000E0060020005C0040B0239B00C05810B5DE
:1005300000F076FE0223032801D9180010BD014BFC
:100540001B5CFAE7C440000810B514001A00B02381
:100550009B00C058230000F08BFE0223032801D922
:10056000180010BD014B1B5CFAE7C046C4400008F0
:10057000B0239B00C05810B500F0B2FE0223032840
:1005800001D9180010BD014B1B5CFAE7C4400008FC
:10059000B0239B00C05810B501F0B0F90223032826
:1005A00001D9180010BD014B1B5CFAE7C4400008DC
:1005B000B0239B00C05810B501F0DCF902230328DA
:1005C00001D9180010BD014B1B5CFAE7C4400008BC
:1005D000B0239B00C2584BB2002B05DB49015118D8
:1005E0002B31FF31087870477F230B405B01D11816
:1005F0002A310878F7E7C046B0239B00C05810B5F1
:1006000000F022FE0223032801D9180010BD014B7F
:100610001B5CFAE7C440000810B5B024A4000059E0
:1006200000F0B2FE0223032801D9180010BD014BCF
:100630001B5CFAE7C440000810B5B024A4000059C0
:1006400000F07AFE0223032801D9180010BD014BE7
:100650001B5CFAE7C4400008B02310B59B00C058EB
:1006600000F08AFE10BDC046004870479801002087
:100670007047C046122301480B8070473C000020A1
:10068000042301480B8070471C00002030B5002A6D
:1006900019D0013AD2B2013252000024002507E0FD
:1006A000303302340B704D700001023194420AD095
:1006B000030F092BF4D9373302340B704D7000014E
:1006C00002319442F4D130BD1A2370B50B800C4B2B
:1006D00018680C4B1B68C018002802D10A4C200077
:1006E00070BD094C094BA11C08221D68FFF7CEFF05
:1006F0002100042212312800FFF7C8FFEFE7C046AF
:10070000ACF7FF1FB4F7FF1F20000020B0F7FF1F5A
:1007100010B5044C0A000448210002F031FB20000F
:1007200010BDC04654090020C840000810B5044C54
:100730000A000448210002F023FB200010BDC0463F
:1007400054090020DC40000810B5044C0A0004489D
:10075000210002F015FB200010BDC0465409002006
:10076000F440000810B5044C0A000448210002F0CF
:1007700007FB200010BDC0465409002000410008BE
:10078000002070470020704770B50500096802F02E
:10079000EFFF054C2900200002F0D2FC200002F0FF
:1007A000F5FC002070BDC0461C04002010B5064CAE
:1007B00000220649200002F0B7FC0549200002F0A3
:1007C000BFFC002010BDC0461C040020480D0020C6
:1007D000540B0020AE2370B5084C9B00E558A43B99
:1007E000EB5806000120002B07D10A002000310041
:1007F00002F09AFC200002F0ABFC70BD1C0400204B
:100800007047C046FEE7C0467047C0467047C046C6
:1008100010B501F077FD10BD10B5024803F0ACFA39
:1008200010BDC046F403002010B5024800F0C4FD1E
:1008300010BDC046E006002001200A4B82B0996935
:10084000014399619A6902400092009A8022D96915
:1008500052051143D961DB691A400192019B02B034
:100860007047C0460010024010B5040088B0142242
:10087000002103A803F001FC174B22689A4201D023
:1008800008B010BD8022154B9204D9691448114359
:10089000D961D9690A400192019A80225969D2022C
:1008A000114359615B6903A91A400292029BC0235C
:1008B0009B000393022304930133069301330793B0
:1008C00001F032FD002200211E2001F007FE1E2053
:1008D00001F038FED4E7C04600640040001002403A
:1008E000000400484022034B815A0B4383520020EE
:1008F0007047C04680BF00004022034B815A0B4026
:10090000835200207047C0467F40000084B00292AE
:100910000393012240230191C25244210022C2527A
:1009200042520C314252C15A024A0A43C25200207A
:1009300004B0704780BF0000F0B50C780300A4003D
:1009400004192088A64A0240C878012800D11FE176
:10095000002800D117E1022842D0032800D10DE180
:100960000120A04EA04F324392B222800A78940018
:100970001C1925883D402A43324392B222800A7BCB
:10098000002A2FD14A78002A00D1BFE050229C5A79
:100990000A780125D2009A1812198024E400A4468E
:1009A000CC886244AC4314800A7892009A18148868
:1009B000640607D5148827408C4C274317800A7893
:1009C00092009A18CB781188012B00D1F6E0884B61
:1009D0000B4020214B4083490B439BB213805BE0CB
:1009E0000020BEE750260A78824D92009A1814889B
:1009F0003C402C4314800A789C5BD200D218121918
:100A00008024E400A44601250C896244AC43148090
:100A10000A789C5BD200D2181219774CA4464C89F4
:100A20006244AC4314804A78002A36D10A78920096
:100A30009A181488640407D5148827406F4C2743FC
:100A400017800A7892009A181488640608D51588C9
:100A5000654C2C40654D2C4314800A7892009A18FE
:100A60001588614C2C40614D2C4314800C78644AED
:100A7000A4001C1925882A40C025AD016A40594DA3
:100A80002A4392B22280097889005B181A88584953
:100A90000A402A4392B21A80F0BD0A7892009D184B
:100AA0002A88520407D52A881740544A17432F80B2
:100AB0000A7892009D182A88520608D52C884A4A3E
:100AC00022404A4C22432A800A7892009D182C88A2
:100AD000454A2240494C22432A80CA78012A63D0E1
:100AE0000D78434AAD005D192C88224020246240D5
:100AF0003C4C224392B22A800A7892009B181988B3
:100B00003F4A0A403F490A431A80C5E750270A78FE
:100B1000DC5BD200D2181219374C0126A446CD88CE
:100B20006244B5431580384DDC5BAC460A786444BA
:100B3000D20012190C69D218002C2ED03E2C43D8AA
:100B4000650834402D19AD0215800A7892009A1874
:100B50001488640408D51588234C2C40274D2C4359
:100B600014800A7892009A181188254B0B40C021F6
:100B700089014B4023490B4313808DE7C020C000FF
:100B800002430020EDE68020800002430020E8E6DA
:100B90008020C00002430020E3E615881B4C2C4057
:100BA0001B4D2C431480D0E70A78114C92009A1800
:100BB00015882C40134D2C4314809DE70C4B0B40A3
:100BC00010490B43138067E71F26650934406642CE
:100BD00074412D1B0E4CAD0225431580B5E7C04670
:100BE0008F89FFFF8080FFFF8F8FFFFFC080000095
:100BF000BF8FFFFF808100000404000080C0000060
:100C00008FBFFFFF8080000006040000FF83FFFF0E
:100C10000080FFFF30B50B7B002B19D14B78002BE8
:100C200000D17AE00B789B00C3181A88520608D5C9
:100C30001C884A4A22404A4C22431A800B789B0067
:100C4000C3181988474A0A4047490A431A8062E094
:100C50004B78002B34D10B789B00C3181A885204B0
:100C600008D51C883D4A2240404C22431A800B780C
:100C70009B00C3181A88520608D51C88374A2240A0
:100C8000374C22431A800B789B00C3181C88334AC8
:100C9000374D2240324C22431A800C78354BA40049
:100CA000041922881A402A4392B222800A789200BC
:100CB000801803882B4A13402B439BB203802AE001
:100CC0000B789B00C41823885B0408D52288234B2B
:100CD0001340264A134323800B789B00C4182388B3
:100CE0005B0630D422881D4B214D13401F4A13430D
:100CF00023800C781B4BA400041922881A402A4335
:100D000092B222800A78920080180388194A134010
:100D10002B439BB20380002030BD0B789B00C3188F
:100D20001A88520408D51C880C4A22400F4C2243D2
:100D30001A800B789B00C31819880E4A0A400A498A
:100D40000A431A80E7E72288044B1340044A1343FE
:100D500023800B789B00C418C4E7C0468F8FFFFF29
:100D6000C0800000BF8FFFFF8080000080C00000B7
:100D70008080FFFF8FBFFFFF4A78F0B5012A56D071
:100D80008B690C69A34227D800248C610C7B002C52
:100D900028D150228C4D845AAC460A786444D20043
:100DA00012198218002B00D17AE03E2B00D9D4E032
:100DB00001255C082B40E418A40214800B789B00EA
:100DC000C0180288814B1340C02292015340804AD0
:100DD000134303800020F0BD1B1B8B6123000C7BA1
:100DE000002CD6D0002AE9D150257A4E445BB44677
:100DF0000A786444D20012191218002B00D08FE038
:100E00001688754C754F26403E4316804A78002A56
:100E100000D094E0425B6C4D0B78AC46DB00624442
:100E20009B181B181A8814403C431C80C6E78A692B
:100E30000B699A423BD800238B610B7B002B3CD182
:100E40008023DB009C46CC88160464444B69360C36
:100E500024180136E41A7608A4460AD064461F19FD
:100E60005C781D7824022C43013E3C800233002E26
:100E7000F4D15023C45A0B78DB001B19554CC3180E
:100E8000A44663441A800B789B00C0180288544B18
:100E9000134030225340534A13439BB2038099E7D7
:100EA00014884D4B23404D4C2343138086E7D21AC0
:100EB0008A611A000B7B002BC2D00B789C000419AE
:100EC0002488640654D55024DB00045BC3181B1926
:100ED0003D4CA44663441A804B898024E4001204EC
:100EE0000719FF18120C4B6901325208FF1A002A29
:100EF00009D05C781D782402DE192C43013A348035
:100F00000233002AF5D14B78002B3CD10B78364ABE
:100F10009B00C3181C882240344C22431A80B2E73D
:100F20003E2B3DD91F261E4077427E415C09A41B03
:100F30002A4EA402344314804A78002A3AD0012A67
:100F400000D03BE74F32845A0A78D2008218121937
:100F50001D4CA4466244138030E71F255C092B40DA
:100F60005D426B41E41A1D4BA4021C43148025E72B
:100F70005024DB00045BC3181B19164CA4466344C1
:100F80001A800B89A9E7012B00D07CE70B78164A61
:100F90009B00C3181C882240154C22431A8072E71C
:100FA00001241C4026005F08BC19A40214804A7862
:100FB000002AC4D1425B044D0B78AC46DB0062448E
:100FC0009B18C452FAE6C046060400008FBFFFFF1C
:100FD0008080000002040000FF83FFFF0080FFFF0D
:100FE000BF8FFFFF8080FFFF8F8FFFFFC08000005B
:100FF00080C000004B78002B0DD10B789B00C018EF
:1010000002880B4B1340802252015340094A13437C
:101010000380002070470B789B00C0180288064BA5
:10102000134010225340054A13439BB20380F0E75C
:101030008FBFFFFF80800000BF8FFFFF8080FFFF1A
:1010400010B50B7B002B17D14B78002B16D00B78EB
:101050009B00C3181A88520629D4CB78012B0BD0D9
:101060000B789B00C0180288144B13402022534079
:10107000134A13439BB20380002010BD0B789B00E2
:10108000C3181A88520408D51C880E4A22400E4CF8
:1010900022431A800B789B00C31819880B4A0A4018
:1010A000C02189014A400A490A431A80E4E71C88A2
:1010B000044A2240074C22431A80CEE7BF8FFFFF2D
:1010C0008080FFFF8F8FFFFF80C000008FBFFFFF7A
:1010D00080800000C0800000002902D180224C23C3
:1010E000C25200207047C04658228023815A1B02FA
:1010F0000B438352002070474423C05A80B270478C
:1011000000207047F0B58024E4004746A0464244E2
:1011100080189C4680B45B080200002B0FD00D00A5
:101120001E00471AEC192488013EA4B22C70240A30
:101130006C700235002EF5D15B00C218C9186346E9
:10114000DB0701D513880B7004BC9046F0BDC04688
:1011500070B5040086B000285DD0304BC35CDBB2B4
:10116000002B4ED003222D4B2068E254FFF7C4FB26
:101170006068002301260021002829D05A01A21806
:10118000150029352E70013D2B70D386E9709163CF
:10119000D1639A1C01335201DBB211518342EDD36A
:1011A000002200215301E3181D002A35FF35297064
:1011B0003D33013D2A70E970FF3310352960196015
:1011C000130001320A335B01D2B219518242E9D3D2
:1011D00023006A46103323CB23C203CB03C2A26889
:1011E000E36861682068FFF791FB00222423E25442
:1011F0000A4B0132E254E369012B08D0002006B00B
:1012000070BD8A2292008354FFF7CCF8AAE7200031
:1012100000F0FEFBF2E70120F1E7C04629020000E2
:1012200070B58A25AD00435D04000220012B0AD071
:10123000012320686355FFF757FF2068FFF752FB33
:1012400000230020635570BD70B58A25AD00435D55
:1012500004000220012B09D0012363552333E154FC
:101260002068FFF739FF00230020635570BDC0469A
:1012700070B5050048B2002826DB0720084044016D
:10128000210000262C1929312A34FF31FF34691836
:1012900026700A614A780870CB70002A00D0C88195
:1012A000022B0ED08A24A4002B5D0220012B07D034
:1012B000012328682B55FFF73FFB002300202B5507
:1012C00070BD00230B71EDE70720084044012100A9
:1012D00001262C192831293469182670D9E7C0460F
:1012E0004BB270B50400002B1BDB07230B405A01E7
:1012F00011002931FF318218411800202A32FF32B3
:1013000010708A250B70AD00635D0220012B07D0A1
:10131000012320686355FFF77DFC002300206355FF
:1013200070BD07230B405A01110028318218411863
:10133000012029321070E4E770B5072421404D01E7
:10134000441926003D36FF363260A0225200A350D9
:1013500000230432A350220029342A32FF32FF3402
:101360001370217029002931FF3141180068FFF7FF
:1013700003FD002070BDC046072319400A31490112
:10138000401840687047C04670B5072421404D01A1
:1013900044192364002363642300E2630122293398
:1013A00028341A7021702900283141180068FFF78D
:1013B000E3FC002070BDC046F0B544465F4656468B
:1013C0004D46F0B4040083B00068FFF795FE0304B7
:1013D00000D5C8E02068FFF78FFE430500D5A8E0E0
:1013E0002068FFF789FE430400D589E02068FFF7F5
:1013F00083FE830400D57CE02068FFF77DFEC304F4
:1014000042D42068FFF778FE03055AD42068FFF71E
:1014100073FE8022024220D044202368195A91434F
:10142000982219529200A15C002900D06FE040314F
:101430005D5A40382843585208205D5A2843585274
:101440003F39A15454229B5A9C32134075329B0859
:10145000FF32A350200000F0EFFA2068FFF74CFEA7
:1014600083055CD42068FFF747FEC30505D54422F9
:101470002168C94B885A03408B5203B03CBC90464C
:101480009946A246AB46F0BD402304202268D15ABB
:101490008143D152D15A04308143D15298239B00C9
:1014A000E25C012A00D1D9E12000FEF7E7FF4422E7
:1014B0002068BA4B815A0B408352FFF71DFE03058B
:1014C000A4D5402308222068C15A0A434421C252AD
:1014D000455AB34A2A4042520422C15A0A43C252D0
:1014E000FFF70AFEC30400D590E72000FEF7B4FF23
:1014F0008CE744222068AB4B815A0B4083527CE737
:1015000044222068A84B815A0B4083526FE7200089
:10151000FEF7A2FF2068FFF7EFFD8305A2D5442266
:101520002168A24B885A03408B522000FEF77AFFB5
:1015300098E744228A2521689D4B885AAD000340D4
:101540008B522000FEF776FF635D012B00D147E749
:101550000123002663552333E65400212068FFF75A
:10156000BBFD66553CE70F239A46713344279B46E3
:101570002068C35B1BB2002B00DB2CE75546C35B26
:101580009BB21D404CD1DB0600D47BE003889BB2AC
:101590001A0500D522E11BB2002BEADA0288854B3E
:1015A000250013408022134303805023C25AD833AE
:1015B000E35C2935DB009B187F4A1B189446634483
:1015C0001B88FF359B059B0DEB610FD069690029D6
:1015D0000CD0EA88FFF796FDEA696B69944663448C
:1015E00020006B610021FEF707FF20685023C25ADC
:1015F000714B9C462B6962448218002B00D034E169
:1016000011886E4B0B406E490B43138002886D4B63
:101610001340C022920153406B4A13430380A8E752
:10162000AB009846C3181E88B6B232B2002A59DB06
:101630005B4633429DD04346C3181988634A6D0107
:101640000A408021651909020A4329001A805023A3
:1016500028310A78C35AD2008018C0185C4B9C46C7
:10166000EB6B60449C4602882B6C9205920D6A6479
:101670006244EA6309782000002B2FD1FEF7C8FEF0
:10168000206876E70288514B002113408022120225
:101690001343282203805023A25CC35AD20080182F
:1016A000C0184B4BE26B9C46604494460388200074
:1016B0009B059B0D63646344E363FEF7A9FE24234B
:1016C000E25C002A0CD0226C002A09D18021E55C62
:1016D000206829434C254153E2544AE7FFF754FE62
:1016E000206846E71988334A0A4080210A431A8055
:1016F0006B010093E3181A003532FF321278002A8A
:1017000000D18EE09422520094469C44624601929D
:1017100012789146920082181188490400D4ADE0F5
:101720005021415A8C464946C900411861448946B6
:1017300027498C464946614409888905890D8946AF
:1017400000D0D1E01188234B0B4023490B43138079
:10175000A222009B5200E1188B584B448B500B0087
:101760003D33FF331A684A441A60A0235B00CB580C
:10177000002B06D008003930FF300068814500D3C7
:101780009FE0009B2000E3182933FF331978FEF710
:1017900033FE20684CE7C046FFFEFFFFFFEFFFFF70
:1017A000FFF7FFFFFFDFFFFFFFBFFFFFFFFDFFFFB3
:1017B000FFFBFFFF8F0F000006040000FF83FFFF09
:1017C0000080FFFF8FBFFFFF808000000F8FFFFFB3
:1017D000020400008F8FFFFFC08000005023C25A18
:1017E000D833E35C8C21DB00C3189B18404A890086
:1017F0009446220063441B8829329B059B0DFF32CF
:10180000D3616118D288FFF77DFC2168394B0A88C3
:1018100020001340802213430B80FEF7E3FD206875
:10182000A7E65032815A1A002932FF321278D200CC
:10183000821852182E498C46624412889205920DE5
:10184000914600D184E71A003D332F32FF33FF3237
:10185000196812884B46FFF755FC79E700220021F2
:10186000E254200000F0E8F81EE63E2B31D80125B6
:1018700059082B40C91889021180C7E65021415AE6
:101880008C464946C90041186144894618498C462E
:101890004946614409888905890D894600D151E787
:1018A0001A0033323D33FF33FF32128819684B463A
:1018B000FFF728FC019B1A78236892009C4662443B
:1018C00040E72931FF3109782000FFF735FD206816
:1018D000AEE61F251D4059096B426B41C91A064BE4
:1018E00089021943118091E61A003132DAE7C046C5
:1018F000060400008F0F00000080FFFF70B5050098
:1019000007246B680C4001209C4222D84BB2002B6C
:1019100020DB49010A0069180B00002129322A3313
:10192000FF32FF33AA18197001218A2391701470B5
:101930009B00EE5C0220012E0BD0E95428681100B8
:10194000FFF758FB002C0DD08A23002200209B00BB
:10195000EA5470BD63011A00EB1828322933AA1823
:101960001870E1E78C239B00E9182868FFF7C8FB93
:10197000EAE7C04670B504000F2362680B400120FF
:1019800093421FD84BB2002B1DDB072319404A019D
:1019900013000020A21829332A32FF33FF32E31844
:1019A000107000268A259E701970AD00625D0220BD
:1019B000012A07D00122190062552068FFF740FB79
:1019C0000020665570BD072319404A011300A21874
:1019D00028332932E3181070E3E7C04610B50C062F
:1019E0000DD507242140490128314118002A0CD087
:1019F00001220B811B0C0A734B81002010BD490191
:101A00002931FF314118002AF2D10A73CB80F4E763
:101A10009A2301219B000268C1500021083BC15458
:101A20005423D05A01310143D1520221D05A0143EB
:101A3000D15200207047C0467047C046F0B54F46AF
:101A40004646C0B4040083B0002800D114E1036806
:101A5000DA072FD50C20C1494A680240042A00D178
:101A600063E14A680240082A00D155E16368012B0E
:101A700000D18DE1002B00D117E1052B00D120E230
:101A8000B64BB74A19680A401A601968B54A0A4045
:101A90001A6000F043FC80250700B04EAD0205E05F
:101AA00000F03CFCC01B642800D933E133682B42B2
:101AB000F6D023689A072AD50C21A84A506801421B
:101AC00000D1D2E050680140082900D1C4E0E368A9
:101AD000A24D002B00D162E101232A6802271343A3
:101AE0002B6000F01BFC060005E000F017FC801BDB
:101AF000022800D90EE12B68984A1F42F5D0F82041
:101B0000136821698343C9000B43136023681A07D4
:101B10002DD45A0745D580230020904A5B05D16912
:101B20008046194208D1D1691943D161D269134065
:101B30000193019B0123984680278B4E7F003368D9
:101B40003B4200D1CAE0A368012B00D152E1002B37
:101B500000D1F4E0052B00D17DE101217F4B1A6A11
:101B60008A431A621A6A03318A431A6246E1E369B8
:101B70007A4D002B00D185E001236A6A02261343C7
:101B80006B6200F0CBFB070005E000F0C7FBC01B59
:101B9000022800D9BEE06B6A1E42F6D023685A07BD
:101BA000B9D4DA0612D56269012A00D1CDE1053235
:101BB00000D007E10420F82568494A6B82434A6354
:101BC0004A6BA069AA43C00002434A639B0622D520
:101BD0000C21624A53680B400C2B00D14CE1536836
:101BE0000B40082B00D140E1236A5C4D002B00D153
:101BF00016E180266B6B760233436B6300F08EFB3D
:101C0000070005E000F08AFBC01B022800D981E034
:101C10006B6B3342F6D0636A002B1BD00C214F4D07
:101C20006A680A40082A00D130E12A68022B00D1F4
:101C300053E14E4B802413402B6000F06FFBA40453
:101C4000060004E000F06AFB801B022862D82B68C3
:101C50002342F7D1002010E05168C02252020A400E
:101C6000802109028A4200D031E73C4A126892077B
:101C700044D5E268012A41D0012003B00CBC904653
:101C80009946F0BD01226B6A022693436B6200F015
:101C900045FB070004E000F041FBC01B022839D8D7
:101CA0006B6A1E42F7D1236879E72C4D2C4B2A68CA
:101CB000802613402B602A682A4BB60213402B6003
:101CC00000F02CFB070004E000F028FBC01B642898
:101CD00020D82B683342F7D12368EBE633683B43C7
:101CE000336000F01BFB050004E000F017FB401B15
:101CF00064280FD833683B42F7D024E7F82517480B
:101D000021690268C900AA430A4302601A0700D485
:101D1000FFE62CE70320B0E7C022496852020A40E0
:101D2000802149028A4200D0A0E60C4A1268920340
:101D300000D4BFE66268002A00D0BBE69CE701221F
:101D4000064E0227336A0A4D93433362336A0332E5
:101D50009343336200F0E2FA814611E00010024042
:101D6000FFFFFEFFFFFFFBFF00700040FFFFFFFED5
:101D70008813000000F0D2FA4B46C01AA842C9D816
:101D8000336A1F42F6D14346012B5DD0236808E732
:101D900080217E4A490213680B43136079E60122D1
:101DA0002B68022693432B6000F0B8FA070004E08A
:101DB00000F0B4FAC01B0228ACD82B681E42F7D141
:101DC0002368A4E60423714D02266A6B13430122A3
:101DD0006B636B6B93436B6300F0A0FA070004E046
:101DE00000F09CFAC01B022894D86B6B1E42F7D1FE
:101DF0002368EBE6654A116A0B43136200F08EFA22
:101E0000624F81460226624D06E000F087FA4B469B
:101E1000C01AA84200D97DE73B6A1E42F5D0B2E75E
:101E20006A6B5C4B802613406B6300F077FA760296
:101E3000070005E000F072FAC01B022800D969E72C
:101E40006B6B3342F6D1E6E6504A534BD1690B40F7
:101E5000D3612368A5E604224C4B196A0A431A622F
:101E60000122196A0A431A62C8E75368C022520263
:101E70001340934200D0B7E6444B5B6BDB0300D4C6
:101E8000C9E6236A012B00D0F6E6C4E6012B00D197
:101E9000F2E6C0226868A16A5202EB6A02408A42F6
:101EA00000D0E9E60F221340226B934200D0E3E614
:101EB000F0239B030340E06A181A431E9841C0B206
:101EC000DBE68021314BC9021A680A4380211A607F
:101ED0001A6849020A431A60DBE5304B8027134039
:101EE0002B6000F01BFABF04804606E000F016FAF3
:101EF0004346C01A022800D90CE72B68234E3B4208
:101F0000F4D10F22F36A9343226B1343F362A26A64
:101F1000E16A73681143224A8024134080220B43F4
:101F20007360336852041343336000F0F7F9A4047C
:101F3000050005E000F0F2F9401B022800D9E9E6AF
:101F400033682342F6D0002097E604230F4D022782
:101F5000696B0B436B636B6B1A436A6300F0DEF9CA
:101F6000060005E000F0DAF9801B022800D9D1E66E
:101F70006B6B064A1F42F5D0F820536BA16983436F
:101F8000C9000B435363236820E6C046001002409B
:101F900088130000FFFFFEFFFFFFFFEFFFFFFFFEC4
:101FA000FF7FC2FF30B51C4C89B01022210068466B
:101FB00002F05AF821001022103104A802F054F85F
:101FC0000C2316494A681340082B06D00C2B02D06C
:101FD000134809B030BD1348FBE70F256B46900C42
:101FE00028401C5CCB6A102069462B400918C95C4C
:101FF000C02380205B021A404002824201D09A42F4
:1020000004D00748FEF78CF86043E2E70548FEF786
:1020100087F86043DDE7C046A44000080010024096
:1020200000127A00006CDC02F8B54F464646040008
:10203000C0B40D0000280DD001213F4A13680B40A9
:10204000AB420CD213688B432B43136013681940C7
:102050008D4204D001200CBC90469946F8BD2368FF
:102060009A070ED55A0705D5E0203449C0004A68C2
:1020700002434A60F02031494A688243A068024323
:102080004A60DB0723D563682C4A012B4BD0022B17
:1020900043D0032B4BD012689207DBD50321274E88
:1020A0000C2772688A431343736000F037F9244B9E
:1020B0008146984605E000F031F94B46C01A40458C
:1020C0002FD8726863683A409B009A42F3D101218D
:1020D000194A13680B409D4205D213688B43136065
:1020E00013681942B6D123685B0706D51349154B0F
:1020F0004A681340E26813434B60FFF753FF0F4BEE
:10210000114A5B681B061B0FD35CD8400F4B18604D
:10211000002000F0C1F800209DE712689201BDD4B4
:1021200098E7032097E712689203B7D492E7526BBF
:10213000D203B3D48EE7C046002002400010024014
:1021400088130000FFF8FFFF10410008680000201E
:10215000F0B54F464646C0B4036883B00400DA03C6
:1021600039D580230020464A5B05D1698046194253
:1021700008D1D1691943D161D26913400193019B00
:102180000123984680263F4D76002B6833425ED06F
:10219000C0213B4D89002B6A0B4056D0626811402C
:1021A0008B420ED08026286A296A76023143296242
:1021B0002E6A354B35490340314029622B62C307F3
:1021C00034D42F49304B086A03401A4343460A620D
:1021D000012B4CD02368DA0706D5032028490A6B67
:1021E0008243A06802430A639A0606D51020244958
:1021F0000A6B8243E06802430A639A030ED400200C
:102200005B0506D540221E490B6B9343226913439D
:102210000B6303B00CBC90469946F0BD8020184972
:102220000A6B8243606902430A63E8E700F076F8CC
:10223000174B07000226994604E000F06FF8C01B18
:1022400048451AD82B6A1E42F7D06268B9E72B6856
:1022500033432B6000F062F8070004E000F05EF802
:10226000C01B642809D82B683342F7D090E7CA69AD
:10227000084B1340CB612368ADE70320C9E7C04694
:102280000010024000700040FFFCFFFFFFFFFEFF58
:1022900088130000FFFFFFEF10B50400FA200E4B7B
:1022A00080001978FDF73CFF0C4B01001868FDF722
:1022B00037FF00F053F90123002801D1032C01D985
:1022C000180010BD00222100013800F007F9044B6E
:1022D0001C600023F4E7C046640000206800002072
:1022E000600000201023064A10B5116800200B433F
:1022F0001360FFF7D1FFFEF79FFA002010BDC04624
:1023000000200240034A044913680978CB1813607F
:102310007047C0463C0F002064000020014B186845
:102320007047C0463C0F0020F0B55F4656464D460C
:102330004446F0B40B6885B08B469C460022002BC7
:1023400000D1B2E0604BE1469A46604B984665E0AA
:10235000016856008C460321B1406446C9430C40D5
:10236000A44603241C40B440674627430760019FEE
:10237000013F012F7CD95C46C5682940A568B5405E
:102380002943C160802149050B4243D051460124B5
:102390008969032721435446A161A16901240F26BD
:1023A00021404B4C1740A446BF00BE4090240391EF
:1023B00003999108890061448D68E405B543A04202
:1023C00000D179E0434EB04200D177E0424EB042B6
:1023D00000D176E00526BE4035438D604146009C25
:1023E0000968E543DC035DD4294044462160616807
:1023F0009C0354D4294044466160A168DC024BD45C
:1024000029404446A160E1689B0242D429400C0067
:102410004346DC604B460132D34046D001254C4652
:1024200095402C400094F5D05B465B6810211F005E
:102430008F4339000197022F8AD10F2405311140B3
:1024400089008C40D708BF00C7193E6AA6435C4686
:1024500024698C4021003143396203215600B14088
:102460000324C9431C40B44007680F40274307605A
:102470005C46E4688768B4400F40274301248760C6
:102480004768AF433D001F09274097403D434560E3
:1024900071E7009C0C43BBE7009C2143B1E7009C23
:1024A0002143A8E7009C21439FE705B03CBC904630
:1024B0009946A246AB46F0BD00268DE70126BE40F8
:1024C0008AE70226BE4087E7001002400004014070
:1024D00000000140000400480008004870B50028D2
:1024E00014DB032583082840FC352E00134AC02442
:1024F0009446C00089018640294081409B00634486
:10250000A4001A59B2431143195170BD03240F237B
:10251000C0B203402040FC342500094AC000944664
:102520008901854021408140083B9B089B00634412
:10253000DA69AA431143D961E7E7C04600E100E048
:1025400000ED00E0002805DB1F2318401E3B834000
:10255000014A13607047C04600E100E00A4A431E8A
:10256000012093420ED8C020084A094953600B6AE3
:1025700000061B021B0A03430B620023002093602A
:10258000073313607047C046FFFFFF0010E000E014
:1025900000ED00E07047C04610B5002814D0AD2310
:1025A0009B00C458002C01D00024C450002902D044
:1025B000AC239B00C150A72301219B00C154027092
:1025C000FDF770FF002010BD0220FCE7002904D0B9
:1025D000AD239B00C150002070470220FCE7C0469D
:1025E00010B5FDF7A1FF002010BDC046AD239B0034
:1025F000C35810B5002B03D01B689847002800D0A3
:10260000022010BDAD2310B59B00C3585B689847EE
:10261000002010BDAA239B0070B5C5180400280037
:1026200000F090FBA52301229B00E250114BE25ADF
:10263000163BE2501033E15C1F230B40012B14D0FA
:10264000002B0DD0022B06D07F2320009943FDF7ED
:102650009FFF002070BD2900200000F0C7FAF8E7B6
:102660002900200000F01CF9F3E72900200000F009
:102670008DFAEEE7AE02000070B5040010000029EC
:102680000DD1A5229200A358032B16D00025052BAF
:1026900011D1A55000212000FDF77AFF0BE0AD23FA
:1026A0009B00E3589B69002B19D0A7229200A25CE3
:1026B0000225032A27D0280070BD21005531FF31A3
:1026C000CA680B699A420CD9D21ACA60934218D8C8
:1026D0009AB20100200000F0A1FB0025EBE70225E3
:1026E000E9E7AD239B00E3581B69002B04D0A72228
:1026F0009200A25C032A0AD0200000F097FB00257C
:10270000D9E792B2E5E7200098470025D3E72000FB
:102710009847F1E7F8B504001000002913D1A5236C
:102720009B00E358022B1BD00422934303D180214A
:102730002000FDF72DFFA8239B00E25C0020012A6A
:102740000DD1E0540BE0AD239B00E3585B69002BF7
:1027500025D0A7229200A25C0220032A3CD0F8BD1B
:10276000226A656AAA422FD8E66929003000FDF77F
:102770005DFD0F1E15D1B54213D8A625AD006359D6
:102780009E420ED200220021200000F02DFB675156
:102790000023002200212000FDF74EFFCBE702209E
:1027A000DDE7AD239B00E358DB68002B04D0A722B4
:1027B0009200A25C032A13D080212000FDF7E8FEDE
:1027C000200000F03FFBB6E7521B2262010092B2EC
:1027D000200000F009FBDBE7200098470020BEE75F
:1027E00020009847E8E7C04670B54023002200214A
:1027F0000400FDF7A9FEAC23012540265B00E5504F
:102800000C33E650253BFF3B002280212000FDF7E2
:102810009BFEA723A5229B00A5616662E5540023C9
:102820009200A35010326360A350AE239B00E35884
:10283000002B06D0AD239B00E35800215B682000ED
:102840009847002070BDC046017400207047C04604
:10285000A7239B00C15C034A81540422C254002078
:102860007047C0469D020000A7239B00C25C042A5B
:1028700002D1024A825CC254002070479D020000CF
:10288000A72310B59B00C35C032B01D0002010BD13
:10289000AD239B00C358DB69002BF7D09847F5E7C1
:1028A000602270B50B7882B004000D001340202B1D
:1028B00015D0402B13D0002B0AD080212000FDF72B
:1028C00067FE00212000FDF763FE002002B070BD0E
:1028D0004B78092BF1D8A84A9B00D3589F46AD23CB
:1028E0009B00E35829009B6820009847EDE78B7810
:1028F000A24D2B70012BE0D8A7218900425C022A4F
:1029000000D119E1032A00D00AE1002B00D129E10E
:102910004168012909D0C9B2FFF774FE2978200067
:102920006160FFF763FE0228C7D0200000F07EFA46
:10293000CBE7A7239B00C35C013B022BBDD8CB8810
:10294000022BBAD1013BC360A9239B00C358002BC3
:1029500001D00323C360210002220C31200000F0CB
:1029600035FAB2E7A7239B00C35C013B022BA4D836
:102970004B88012BA9D1A92300229B00C250D4E788
:102980004B88012BA1D1A9229200835000F04EFA6E
:102990009BE78B88002B00D08FE7CB88002B00D0E3
:1029A0008BE74D887F2D00D987E7A726B600835D8A
:1029B000E9B2032B00D180E7714BC154FDF71CFE37
:1029C000200000F033FA002D00D1C8E00223A35507
:1029D0007BE74A8800236946CB80130A072B00D97E
:1029E0006BE768499B00CB589F46CB88012B00D0F2
:1029F00063E7A7239B00C35C002B00D15DE7022B9C
:102A000000D885E0032B00D057E7011D012200F01C
:102A1000DDF95AE7037C002B00D04EE7AD236A4670
:102A20009B00C358901D1B6B9847072343706B4650
:102A3000DB88002B0ED0EA88002A00D175E7191C2C
:102A4000934200D9111C6B468AB2D9800100200044
:102A500000F0BCF9EB88002B00D036E765E7037C7B
:102A6000002B00D029E7AD236A469B00C358901D78
:102A70005B6B9847DBE7D2B2052A00D91DE7424BD2
:102A800092009B589F46037C002B63D1AD239B0093
:102A9000C3589B6A6A46901D984702234370C6E755
:102AA000AC236A469B00E358911D1B68007C984745
:102AB000BDE7AC239B00C3585B69002B00D1FCE64B
:102AC0006A46207C911D9847B1E7AC239B00C35810
:102AD0001B69002BF4D1F0E6AC239B00C358DB68E4
:102AE000002BEDD1E9E6AC239B00C3589B68002B7B
:102AF000E6D1E2E6AC239B00C3585B68002BDFD134
:102B0000DBE6AC239B00C3589B69002BD8D1D4E6ED
:102B10000023010083600831012200F057F9D4E658
:102B20008021FDF735FD00212000FDF731FD2978DA
:102B30002000FFF767FDC8E6002B00D1F5E6012372
:102B40004360023343540121FFF750FD022800D0B7
:102B5000EBE6B2E6AD239B00C358DB6A9AE701239C
:102B6000A355B2E60222425443600021FFF74AFD1A
:102B7000200000F05BF9A8E620410008B80300201F
:102B80009E0200004841000868410008602270B5BC
:102B90000B7804000D001340202B0DD0402B0BD0E0
:102BA000002B09D080212000FDF7F2FC002120003D
:102BB000FDF7EEFC002070BDA7239B00E35C013B0A
:102BC000022BEFD82B79012BECD8AD239B00E358D7
:102BD00029009B6820009847EB88002BEAD1002849
:102BE000E8D1200000F022F9E4E7C046602270B589
:102BF0000B7804001340202B2AD0402B28D0002B28
:102C000009D080212000FDF7C3FC00212000FDF742
:102C1000BFFC002070BD8A884B78D0B2012B4AD00F
:102C2000002B1CD0032BECD1A7239B00E35C022BD1
:102C300055D0032BE5D14B88002B4CD143064AD00D
:102C4000CB88002B47D101002000FDF7A1FC42E01A
:102C5000AD239B00E35820009B689847D9E7A72342
:102C60009B00E35C022B46D0032BCAD1130651D440
:102C70000F2303409A00D3189B00E3185933FF3306
:102C80001B68002BBDD07F2303409D00ED18AD00D5
:102C900065195535FF35002B06D001002000FDF7E2
:102CA00097FC00284BD001232B6002222900200032
:102CB00000F08CF8ADE7A7239B00E35C022B0ED05D
:102CC000032B9ED14B88002BA3D1430603D00100D8
:102CD0002000FDF76DFC200000F0A8F899E74306FE
:102CE00000D18EE701002000FDF752FC802120007A
:102CF000FDF74EFC8DE7430600D082E721005531F9
:102D0000FF31130618D4002302220B60200000F0CC
:102D10005DF87EE70F2303409A00D3189B00E31869
:102D20009B69002B00D16CE77F2303409D00ED18C9
:102D3000AD0065191435AEE74139FF39E3E7286086
:102D4000B3E7C0460B7803704B784370CB788A7832
:102D50001B02D31843804B790A791B02D318838056
:102D6000CB798A791B02D318C380704710B5040051
:102D70008021FDF70DFC00212000FDF709FC10BDAE
:102D800030B500281FD00378002B1DD0040000238D
:102D9000013425780133DBB2002DF9D15B00023319
:102DA00013800B7003234B700478002C0BD000258C
:102DB000013B5A1CD2B2CC5401308D5404780233FA
:102DC000DBB2002CF5D130BD0223E9E71300A522C8
:102DD00010B50224920084500A00C36103620021EE
:102DE000FDF71AFC002010BD10B513000A000021E9
:102DF000FDF712FC002010BD1300A52210B503241E
:102E000092008450393AFF3A8350043283500A00CA
:102E10000021FDF711FC002010BDC04610B51300C5
:102E20000A000021FDF708FC002010BDA5230422A4
:102E300010B59B00C250002100230022FDF7ECFBDF
:102E4000002010BDA523052210B59B00C250002113
:102E500000230022FDF7F0FB002010BDAE239B00F5
:102E600070B5C4580433C358002B0BD08025AD0077
:102E7000605DFF2806D0044A9B68A25C2100984749
:102E8000FF236355002070BD01020000432303802F
:102E9000004870476C0000204323038000487047BF
:102EA000380100204323038000487047F4000020CD
:102EB0000A23038000487047E800002070B5AE2662
:102EC000B60004008559FDF7C7FB83239B00E8503B
:102ED000A3590220002B09D083239B00E918083B4B
:102EE000E858B833E358DB689847002070BDC04607
:102EF000F8B5AE239B00C75805000E00002F1ED06A
:102F00008C006418A4000419E069002805D1852309
:102F1000002200209B00FA50F8BD0833EA584B010C
:102F2000D318996BFDF782F90029F0D1E1610023F4
:102F3000002231002800FDF76FFB0020ECE70220A3
:102F4000EAE7C046AE23F0B59B0083B0C6586B4697
:102F50000C006A46591D00230500971D20780B7050
:102F60003B806033034015D0202B1FD1E288002A1C
:102F700043D040B2002827DB802362789B00F254C4
:102F8000E288264B3100F254E2882800FFF734FF34
:102F9000002010E063780A2B24D00B2B0DD0002BDF
:102FA00004D1A7239B00EB5C032B30D02800210029
:102FB000FFF7DCFE022003B0F0BDA7239B00EB5C13
:102FC0000020032BF2D1F6E7AF239B00EB58310032
:102FD0009B6860789847E28831002800FFF7F6FE8A
:102FE0000020E8E7A7239B00EB5C032BDED1012246
:102FF0002800FFF7EBFE0020DDE7AF239B00EB5836
:1030000060789B680022210098470020D3E70222C5
:1030100039002800FFF7DAFE0020CCE701020000AB
:1030200070B5040000258121FDF7A2FA0121E562B7
:103030002000FDF79DFAB623AE265B00E550822105
:103040002000B600FDF794FAA3592564002B08D0A0
:10305000AF239B00E3585B689847A059FDF708FB36
:10306000A551002070BDC04670B5037C0400002B44
:103070003AD1802302229B008121FDF765FA0125C8
:103080008023E5629B00022201212000FDF75CFA0B
:10309000B6235B00E5500322082382212000FDF7C0
:1030A00053FA0123872023648000FDF7DDFAAE2365
:1030B0009B00051EE0502AD00433E3581B68984754
:1030C000852200239200AB500432AB50237C002BAE
:1030D00013D081239B00EA58C53BFF3B0121200010
:1030E000FDF7AAFA002070BD0125402302228121AC
:1030F000FDF72AFAE5624023C5E781239B00EA58E1
:103100000121043B2000FDF797FA0020EBE70120A6
:10311000E9E7C046002904D0AF239B00C15000203E
:1031200070470220FCE7C046AE239B00C3588220B4
:10313000800019508421890000205A507047C046F1
:10314000AE239B00C258B43B0020D1507047C0460C
:10315000AE239B00C25810B5002A15D085218900E6
:1031600054580123002C01D0180010BD5350842363
:103170009B00D3580C39525888390363FF399BB2EE
:10318000FDF74AFA0023EFE70223EDE7AE239B00A9
:10319000C35810B5002B15D0027C002A08D081221C
:1031A00092009A5801214023FDF746FA002010BDF5
:1031B000812292009A58802301219B00FDF73CFA5E
:1031C0000020F4E70220F2E710B502210148FDF7E4
:1031D00001FB10BD7C4200080F22F0B546464F4669
:1031E000742388461100C0B489B001AF3B700368F6
:1031F0001C4D1940695C0669F97019091B0A1340D6
:10320000EB5C11403240695C7B70AB5CB9703B7128
:10321000002E23D009226A4494460F220A2000235C
:103220009146684442464946D25C5C001140695C64
:10323000120901556146AA5C01330A559E42F1D13B
:103240000D236246760093550636B1B23800FDF77D
:10325000C1FA09B00CBC90469946F0BD09236B44F5
:103260009C46EDE76C420008F0B5474680B488B054
:1032700054236A460F2613701C4C42684C3B3500A1
:103280006F461540655D1209FD54013B002BF6D1D8
:1032900005690F332B40E35C7B72002D21D00A229D
:1032A0006A4494460F220B26002390466E444746FC
:1032B000CA5C58001740E75D120937546746A25CA4
:1032C00001333A549D42F2D10D2362466D005355AD
:1032D0000B35A9B26846FDF77DFA08B004BC9046EC
:1032E000F0BD0A236B449C46EEE7C0466C420008E2
:1032F00030B583B06A46722313700F2214006D46F6
:1033000003680C491C400C5DEC701C091B0A13403F
:10331000CB5C14406B7003690C5D1A408B5C684693
:103320002B710D230621AC706B71FDF753FA03B0BE
:1033300030BDC0466C420008522370B50F2684B0E1
:1033400001AC42680B4D23704A3B31001140695C6F
:103350001209E154013B002BF7D102690F331340EE
:10336000EB5C0B2163720D232000A372FDF732FA90
:1033700004B070BD6C42000830B500218BB0050070
:1033800000F0BCFC44B2002C0ADC1FE0069B002BC2
:103390001ED0022B21D0013CE0B244B2002815D04F
:1033A00001AB03AA0021280000F014FC0028F2D190
:1033B000059B002BEAD0042BEDD1069B002B10D0EF
:1033C000022BE8D103A8FFF7B7FFE4E70BB030BD4D
:1033D00001A903A8FFF700FFDDE703A8FFF788FFB7
:1033E000D9E701A903A8FFF73FFFD4E700B583B0F1
:1033F00006220021684600F040FE6A4656231370FC
:1034000031226B4669465A7030238B700B71233B17
:10341000CA704B7168460621FDF7DCF903B000BDA8
:1034200030B583B006220021684600F026FE4E2308
:103430006A4613700A4B0F201A680423094C0100D6
:103440006D461140615C1209E954013B002BF6D135
:103450000D33062168466B71FDF7BCF903B030BD32
:10346000005801406C42000800B583B00D236A4645
:103470000748D37100F0D8FA002802D007236A4623
:10348000D3716B460121D81DFDF7A4F903B000BD2F
:10349000F403002000B583B00D236A460748D371BA
:1034A00000F0F2FA002802D007236A46D3716B4677
:1034B0000121D81DFDF78EF903B000BDF4030020F3
:1034C00070B5002923D00478002C25D000260025D3
:1034D00008E0573CE3B22D011D438E4216D2845DB5
:1034E000002C13D02200303AD3B20136092BF2D986
:1034F0002300613B052BECD92300413B052B08D869
:10350000373CE3B22D011D438E42E8D32900080069
:1035100070BD01214942FAE70021F8E710B582B0F9
:103520000D236A460E4CD3711333E35C012B09D093
:1035300007236A46D3716B460121D81DFDF74AF96E
:1035400002B010BD01300121FFF7BAFF054B80002A
:10355000C3582000636000F051F90028EBD0E7E782
:10356000F403002048420008F0B506008BB002AD1D
:1035700008220021280000F080FD701C0321FFF7C5
:103580009FFF01210490301DFFF79AFF00230700E1
:1035900008900693079305360024002809D06000A0
:1035A00030180221FFF78CFF28550134E4B2A742FE
:1035B000F5D801AB2A0004A9084800F099FA0028C0
:1035C00008D007236A46012168461370FDF702F907
:1035D0000BB0F0BDFFF7F8FDFAE7C046F40300209A
:1035E000F0B506008BB002AD08220021280000F0E3
:1035F00044FD701C0821FFF763FF05903000012196
:103600000930FFF75DFF04230693002307000890AD
:1036100007930A360024002809D0600030180221E0
:10362000FFF74EFF28550134E4B2A742F5D801ABAD
:103630002A0004A9084800F05BFA002808D00723F4
:103640006A46012168461370FDF7C4F80BB0F0BD5F
:10365000FFF7BAFDFAE7C046F403002010B50400F6
:103660008AB00822002102A800F007FD0321601C97
:10367000FFF726FF01210490201DFFF721FF002303
:10368000069302330890079302AA01AB04A90848E5
:1036900000F02EFA002808D007236A460121684668
:1036A0001370FDF797F80AB010BDFFF78DFDFAE72C
:1036B000F403002010B504008AB00822002102A8FB
:1036C00000F0DBFC0821601CFFF7FAFE05902000EB
:1036D00001210930FFF7F4FE04230693023B089012
:1036E000079302AA01AB04A9084800F001FA0028D8
:1036F00008D007236A46012168461370FDF76AF86F
:103700000AB010BDFFF760FDFAE7C046F4030020E1
:1037100010B50378433BDBB2312B05D8124A9B002E
:10372000D3589F46FFF77CFE002010BD01210F48B3
:10373000FDF750F8F8E7FFF7ADFEF5E7FFF714FFE8
:10374000F2E7FFF791FEEFE7FFF7B4FFECE7FFF7D3
:10375000E5FEE9E7FFF744FFE6E7FFF747FEE3E7AB
:10376000FFF77CFFE0E7C046804100088042000888
:10377000F0B54F464646C0B48FB00F000400322269
:10378000002101A800F079FC002F2ADD194E3568D0
:10379000302D2CDC184B013F98460023E719994641
:1037A0000AE042466B1C336023785355BC4218D064
:1037B00035680134302D1ADC23780D2BF1D1002D22
:1037C000EFD02A00414601A800F04EFC6B464A4665
:1037D00004335A554B4601A83360FFF799FFBC42AA
:1037E000E6D100200FB00CBC90469946F0BD0120F8
:1037F0004042F7E7BC030020C003002070B5041E60
:1038000000D176E02023C35C002B6AD0022122681D
:10381000022513688B431360FEF780FD060004E069
:10382000FEF77CFD801B0A2851D823685A68154290
:10383000F6D10122196801250A431A60FEF76EFDD0
:10384000060004E0FEF76AFD801B0A283FD82368C3
:103850005A681542F6D0227E012A45D080211A6886
:103860008A431A60627E012A59D040211A688A432D
:103870001A60A27E012A4DD020211A688A431A605C
:10388000E27E012A41D0102219680A431A60227F81
:10389000012A35D008211A688A431A60627F012AFA
:1038A00029D004211A688A431A60E168A2680020BE
:1038B0000A4321690A4361690A43616801390A437D
:1038C000DA610023012263622033E25408E080229F
:1038D000636A920213436362052220230120E254AB
:1038E00070BDFCF7C1FF91E719687F320A431A6087
:1038F000B8E70120F4E7196803320A431A60D4E7F5
:10390000196807320A431A60C8E710211A688A4307
:103910001A60BCE719681F320A431A60B0E71968D9
:103920003F320A431A60A4E7202370B5C35C013B11
:10393000012B06D98022436AD2021343436201203D
:1039400070BD03688020012480001A5822431A5059
:103950004A69E238FF381040844025008724EE434E
:10396000A400185930401851C869002836D00128E1
:1039700014D18324A400185928431851086804045A
:1039800088880443D00090221818920084508A68D6
:1039900014048A8922439124A400025181208A6957
:1039A0008000002A33D11A5832401A5085200A6903
:1039B0008000002A33D11A5832401A500A6A012A6C
:1039C00004D1872292009C582C439C5080210120D6
:1039D00089005A5882435A500020B1E7103C1859C8
:1039E00030401851C868040488880443D0009022ED
:1039F0001818920084508A6814040A88224391247B
:103A0000A400025181208A698000002ACBD01A5874
:103A10002A431A5085200A698000002ACBD01A5800
:103A20002A431A50CAE7C046202270B5835C0400BE
:103A3000DBB2012B06D08022436A12031343436298
:103A4000012070BD02218154016801250A689A4352
:103A50000A60FEF763FC060004E0FEF75FFC801BD3
:103A60000A2806D823685B682B40F6D163620020E1
:103A7000E7E78022636A92021343636205222023F0
:103A80000120E254DDE7C046202370B5C35C04008A
:103A9000022B06D08022436A520313434362012063
:103AA00070BD0268013B116801250B431360FEF7EE
:103AB00035FC060004E0FEF731FC801B0A280CD818
:103AC00023685A681542F6D002211A6800208A43FA
:103AD0001A6020230122E254E2E78022636A920204
:103AE00013436362052220230120E254D8E7C04635
:103AF000F0B52024045D0668013CB568012C06D9A8
:103B00008022436AD202134343620120F0BDE024C5
:103B10006405254245D0AD01AD0F032D48D00120ED
:103B2000A84018608B68002B49D10B685805CB68FA
:103B300018432B0018331B019851C22308692D012B
:103B400077195B00F850097D012904D18020F958CC
:103B500040000143F95051791479937909022143C6
:103B60001B040B431900D37975191B060B4329005D
:103B70008D31FF310B60517814789378090221431D
:103B80001B040B431900D378C0221B0689350B4355
:103B9000FF352B6001235200B95800200B43BB5066
:103BA000B4E78022436A9203134343620120ADE7E6
:103BB0008022436A1204134343620120A6E7486847
:103BC000CC68C00023430343280018300001835110
:103BD000B3E7C046F0B54F4646462024C0B4045D66
:103BE000013C012C09D98022436AD202134343626B
:103BF00001200CBC90469946F0BD0468A1460029FE
:103C000067D02469A40767D04D46D8270C012E1928
:103C10007F000425BC46F7592F409760654668D160
:103C200077597F0D1760D82702257F00F7592F405D
:103C3000B335FF35AC46D7607759A63DFF3D2F40E1
:103C400065461761775976593F043F0E360C9761E8
:103C500056614A461519B935FF352A681A70026847
:103C60001219B932FF321268120A5A700268121918
:103C7000B932FF321268120C9A7002681219B93206
:103C8000FF321268120EDA7002681219BD32FF326A
:103C900012681A7102681219BD32FF321268120AD4
:103CA0005A7102681219BD32FF321268120C9A71F1
:103CB000026894466444BD34FF342268120EDA71FF
:103CC000026800290FD12023D16800200B43D36064
:103CD0008FE7E468A40797D18022436A92031343D5
:103CE0004362012085E72023116900200B43136103
:103CF0007FE77759FF08576095E7C0462023C35CEC
:103D00000200013B0020012B00D9704713680029F5
:103D100003D003201B691840F7E7DB680330184025
:103D2000F3E7C0462023C35C013B012B06D9802268
:103D3000436AD202134343620120704703680020A4
:103D40005A6911435961F8E77047C0467047C04649
:103D50007047C0467047C0467047C0467047C0466F
:103D60007047C0467047C0467047C0467047C0465F
:103D70007047C0467047C046F8B55F4656464D4648
:103D800044460368F0B45C695A689F689046DA68F4
:103D9000050092461A69002691469A6993460122C7
:103DA000224221D03A420BD09A60BB0700D5CCE02A
:103DB0007B0700D5CCE03B0700D4DDE08026760110
:103DC00080235B001F420AD02A689360BB0500D5A0
:103DD000B7E07B0500D4C2E080239B011E43802313
:103DE0005B021F4200D07EE0230704D51023524619
:103DF000134200D071E0630704D5082352461342F2
:103E000000D094E0A30704D52B68DB689B0700D0A3
:103E100079E0630603D510234A46134257D1A3061F
:103E200003D508234A46134267D1E30603D52B681E
:103E30001B699B076BD1A30303D510234246134292
:103E400069D1E30303D508234246134269D1230411
:103E500005D543465B0710D42B6804225A60002E18
:103E600005D06B6A28001E436E62FFF783FF3CBCDF
:103E700090469946A246AB46F8BDE30504D501231A
:103E80005A46134200D01E43A30504D502235A46C6
:103E9000134200D01E43630504D504235A4613423F
:103EA00000D01E432305D7D570235A461340D3D0E4
:103EB000302B70D059D9502B73D0602B67D0402B4A
:103EC00067D070212B689A698A439A61C5E780227E
:103ED000D20016432A681361A1E78022920016439C
:103EE0002A68D36087E72A689360BA0325D47A03E7
:103EF00031D580231B021E4376E72A682800136110
:103F0000FFF732FF91E72800FFF736FA81E7280034
:103F1000FFF728FF8FE72A6828005360FFF726FF86
:103F20008FE72A6828005360FFF722FF8FE72A688F
:103F30002800D360FFF714FF64E72800FFF708FFAD
:103F400052E72800FFF702FF49E7FFF7FDFE37E7DA
:103F50008026360134E73A0315D51E4344E73B0576
:103F60000DD58023DB011E4339E7102B16D0202B03
:103F7000A7D110231E43A4E7FFF7ECFE20E728009B
:103F8000FFF7EAFE2BE72800FFF7E8FE2CE7802387
:103F90005B001E4395E720231E4392E708231E4340
:103FA0008FE780231E438CE7134885460420016871
:103FB000090E1F22914205D11048012101601048CD
:103FC000002101600F481049104A002302E0D45834
:103FD000C4500433C4188C42F9D30D4A0D4C00234D
:103FE00001E013600432A242FBD3FEF7D3FA00F0E3
:103FF00015F8FCF755F9FEE70018002018100240EC
:1040000000000140000000207C0100208C420008DC
:104010007C010020400F0020FEE700000E4B70B531
:1040200000251E000D4CE41AA410A54204D0AB00DC
:10403000F35898470135F8E700F028F8084B0025B9
:104040001E00084CE41AA410A54204D0AB00F3589B
:1040500098470135F8E770BD8442000884420008A3
:104060008442000888420008002310B59A4203D019
:10407000CC5CC4540133F9E710BD030082189342AD
:1040800002D019700133FAE770470000F8B5C04656
:10409000F8BC08BC9E467047F8B5C046F8BC08BCE2
:0440A0009E46704781
:1040A40002030405060708090A0B0C0D0E0F101075
:1040B4000102030405060708090A0B0C0D0E0F1074
:1040C4000002010253544D6963726F656C65637439
:1040D400726F6E696373000053544D333220566916
:1040E400727475616C20436F6D506F7274000000C0
:1040F40043444320436F6E66696700004344432092
:10410400496E74657266616365000000000000001A
:104114000000000001020304060708093229000810
:1041240064290008BA28000880290008BA28000871
:1041340092290008D2290008BA280008EA290008B0
:10414400EE280008BA280008A02A0008862A0008D9
:10415400762A0008BA280008BA2800085E2A00084F
:10416400142A0008F42A0008E62A0008D82A0008BD
:10417400CA2A0008B22A0008022B000836370008B1
:10418400283700082837000828370008283700088F
:10419400283700082837000828370008283700087F
:1041A4002837000828370008243700084237000859
:1041B4002837000828370008483700084E37000819
:1041C40054370008283700085A37000828370008F1
:1041D40028370008283700082C370008283700083B
:1041E400283700082837000828370008283700082F
:1041F400283700082837000828370008283700081F
:10420400283700082837000828370008283700080E
:1042140028370008283700082837000828370008FE
:1042240028370008283700082837000828370008EE
:104234002837000828370008603700082C370008A2
:104244003C3700082003000090010000A00000009B
:10425400500000004000000020000000100000009A
:104264000A0000000800000030313233343536379C
:1042740038394142434445467A0D00000D000000A0
:04428400E900000845
:04428800C100000869
:10428C007506000881060008110700082D070008B4
:10429C00C90600084907000865070008040309045B
:1042AC001A030000000000000000000000000000E5
:1042BC0000000000000000000000000012010002DD
:1042CC000202004083044057000201020301000077
:1042DC00AD0700088107000885070008890700085A
:1042EC00040000000100000000127A0009024300E3
:1042FC00020100C032090400000102020100052481
:10430C00001001052401000104240202052406000A
:10431C00010705820308001009040100020A0000CD
:10432C000007050102400000070581024000000063
:10433C006930000821300008452F000800000000FB
:10434C005D2E0008F12E0008BD2E000800000000B4
:10435C000000000000000000992E00088D2E0008BF
:10436C00A52E0008B12E00080A060002000000402D
:10437C000100000009074300020104C032090400D7
:10438C0000010202010005240010010524010001B6
:10439C00042402020524060001070582030800100C
:1043AC0009040100020A0000000705010240000098
:1043BC00070581024000000009024300020100C011
:1043CC00320904000001020201000524001001055D
:1043DC0024010001042402020524060001070582C1
:1043EC000308001009040100020A0000000705017F
:0C43FC0002000200070581020002000020
:0400000508003FA907
:00000001FF
